{
  "contractName": "Miragrow",
  "abi": [
    {
      "inputs": [],
      "stateMutability": "nonpayable",
      "type": "constructor"
    },
    {
      "anonymous": false,
      "inputs": [
        {
          "indexed": true,
          "internalType": "address",
          "name": "_owner",
          "type": "address"
        },
        {
          "indexed": true,
          "internalType": "address",
          "name": "spender",
          "type": "address"
        },
        {
          "indexed": false,
          "internalType": "uint256",
          "name": "value",
          "type": "uint256"
        }
      ],
      "name": "Approval",
      "type": "event"
    },
    {
      "anonymous": false,
      "inputs": [
        {
          "indexed": true,
          "internalType": "address",
          "name": "previousOwner",
          "type": "address"
        },
        {
          "indexed": true,
          "internalType": "address",
          "name": "newOwner",
          "type": "address"
        }
      ],
      "name": "OwnershipTransferred",
      "type": "event"
    },
    {
      "anonymous": false,
      "inputs": [
        {
          "indexed": true,
          "internalType": "address",
          "name": "from",
          "type": "address"
        },
        {
          "indexed": true,
          "internalType": "address",
          "name": "to",
          "type": "address"
        },
        {
          "indexed": false,
          "internalType": "uint256",
          "name": "value",
          "type": "uint256"
        }
      ],
      "name": "Transfer",
      "type": "event"
    },
    {
      "inputs": [
        {
          "internalType": "uint256",
          "name": "",
          "type": "uint256"
        }
      ],
      "name": "buyers",
      "outputs": [
        {
          "internalType": "address",
          "name": "",
          "type": "address"
        }
      ],
      "stateMutability": "view",
      "type": "function",
      "constant": true
    },
    {
      "inputs": [],
      "name": "latest_1",
      "outputs": [
        {
          "internalType": "address",
          "name": "",
          "type": "address"
        }
      ],
      "stateMutability": "view",
      "type": "function",
      "constant": true
    },
    {
      "inputs": [],
      "name": "latest_2",
      "outputs": [
        {
          "internalType": "address",
          "name": "",
          "type": "address"
        }
      ],
      "stateMutability": "view",
      "type": "function",
      "constant": true
    },
    {
      "inputs": [],
      "name": "latest_3",
      "outputs": [
        {
          "internalType": "address",
          "name": "",
          "type": "address"
        }
      ],
      "stateMutability": "view",
      "type": "function",
      "constant": true
    },
    {
      "inputs": [],
      "name": "owner",
      "outputs": [
        {
          "internalType": "address",
          "name": "",
          "type": "address"
        }
      ],
      "stateMutability": "view",
      "type": "function",
      "constant": true
    },
    {
      "inputs": [],
      "name": "randomResult",
      "outputs": [
        {
          "internalType": "uint256",
          "name": "",
          "type": "uint256"
        }
      ],
      "stateMutability": "view",
      "type": "function",
      "constant": true
    },
    {
      "inputs": [],
      "name": "renounceOwnership",
      "outputs": [],
      "stateMutability": "nonpayable",
      "type": "function"
    },
    {
      "inputs": [],
      "name": "startTime",
      "outputs": [
        {
          "internalType": "uint256",
          "name": "",
          "type": "uint256"
        }
      ],
      "stateMutability": "view",
      "type": "function",
      "constant": true
    },
    {
      "inputs": [
        {
          "internalType": "address",
          "name": "newOwner",
          "type": "address"
        }
      ],
      "name": "transferOwnership",
      "outputs": [],
      "stateMutability": "nonpayable",
      "type": "function"
    },
    {
      "inputs": [],
      "name": "weekTime",
      "outputs": [
        {
          "internalType": "uint256",
          "name": "",
          "type": "uint256"
        }
      ],
      "stateMutability": "view",
      "type": "function",
      "constant": true
    },
    {
      "stateMutability": "payable",
      "type": "receive",
      "payable": true
    },
    {
      "inputs": [],
      "name": "convertEthToWeth",
      "outputs": [],
      "stateMutability": "payable",
      "type": "function",
      "payable": true
    },
    {
      "inputs": [],
      "name": "totalSupply",
      "outputs": [
        {
          "internalType": "uint256",
          "name": "",
          "type": "uint256"
        }
      ],
      "stateMutability": "pure",
      "type": "function",
      "constant": true
    },
    {
      "inputs": [],
      "name": "decimals",
      "outputs": [
        {
          "internalType": "uint8",
          "name": "",
          "type": "uint8"
        }
      ],
      "stateMutability": "pure",
      "type": "function",
      "constant": true
    },
    {
      "inputs": [],
      "name": "symbol",
      "outputs": [
        {
          "internalType": "string",
          "name": "",
          "type": "string"
        }
      ],
      "stateMutability": "pure",
      "type": "function",
      "constant": true
    },
    {
      "inputs": [],
      "name": "name",
      "outputs": [
        {
          "internalType": "string",
          "name": "",
          "type": "string"
        }
      ],
      "stateMutability": "pure",
      "type": "function",
      "constant": true
    },
    {
      "inputs": [
        {
          "internalType": "address",
          "name": "account",
          "type": "address"
        }
      ],
      "name": "balanceOf",
      "outputs": [
        {
          "internalType": "uint256",
          "name": "",
          "type": "uint256"
        }
      ],
      "stateMutability": "view",
      "type": "function",
      "constant": true
    },
    {
      "inputs": [
        {
          "internalType": "address",
          "name": "holder",
          "type": "address"
        },
        {
          "internalType": "address",
          "name": "spender",
          "type": "address"
        }
      ],
      "name": "allowance",
      "outputs": [
        {
          "internalType": "uint256",
          "name": "",
          "type": "uint256"
        }
      ],
      "stateMutability": "view",
      "type": "function",
      "constant": true
    },
    {
      "inputs": [
        {
          "internalType": "address",
          "name": "spender",
          "type": "address"
        },
        {
          "internalType": "uint256",
          "name": "amount",
          "type": "uint256"
        }
      ],
      "name": "approve",
      "outputs": [
        {
          "internalType": "bool",
          "name": "",
          "type": "bool"
        }
      ],
      "stateMutability": "nonpayable",
      "type": "function"
    },
    {
      "inputs": [
        {
          "internalType": "address",
          "name": "recipient",
          "type": "address"
        },
        {
          "internalType": "uint256",
          "name": "amount",
          "type": "uint256"
        }
      ],
      "name": "transfer",
      "outputs": [
        {
          "internalType": "bool",
          "name": "",
          "type": "bool"
        }
      ],
      "stateMutability": "nonpayable",
      "type": "function"
    },
    {
      "inputs": [
        {
          "internalType": "address",
          "name": "sender",
          "type": "address"
        },
        {
          "internalType": "address",
          "name": "recipient",
          "type": "address"
        },
        {
          "internalType": "uint256",
          "name": "amount",
          "type": "uint256"
        }
      ],
      "name": "transferFrom",
      "outputs": [
        {
          "internalType": "bool",
          "name": "",
          "type": "bool"
        }
      ],
      "stateMutability": "nonpayable",
      "type": "function"
    },
    {
      "inputs": [],
      "name": "addLiquidity",
      "outputs": [],
      "stateMutability": "payable",
      "type": "function",
      "payable": true
    },
    {
      "inputs": [],
      "name": "rewardLatestPlayers",
      "outputs": [],
      "stateMutability": "payable",
      "type": "function",
      "payable": true
    },
    {
      "inputs": [
        {
          "internalType": "uint256",
          "name": "tokenAmount",
          "type": "uint256"
        }
      ],
      "name": "_transferProfit",
      "outputs": [],
      "stateMutability": "payable",
      "type": "function",
      "payable": true
    }
  ],
  "bytecode": "0x6080604052737a250d5630b4cf539739df2c5dacb4c659f2488d600460006101000a81548173ffffffffffffffffffffffffffffffffffffffff021916908373ffffffffffffffffffffffffffffffffffffffff1602179055506000600560006101000a81548173ffffffffffffffffffffffffffffffffffffffff021916908373ffffffffffffffffffffffffffffffffffffffff1602179055506000600860006101000a81548173ffffffffffffffffffffffffffffffffffffffff021916908373ffffffffffffffffffffffffffffffffffffffff1602179055506000600960006101000a81548173ffffffffffffffffffffffffffffffffffffffff021916908373ffffffffffffffffffffffffffffffffffffffff1602179055506000600a60006101000a81548173ffffffffffffffffffffffffffffffffffffffff021916908373ffffffffffffffffffffffffffffffffffffffff1602179055506000600e556000600f553480156200017857600080fd5b50620001996200018d6200047760201b60201c565b6200047f60201b60201c565b606460636009600a620001ad919062000881565b633b9aca00620001be9190620008d2565b620001ca9190620008d2565b620001d691906200094c565b60016000620001ea6200054360201b60201c565b73ffffffffffffffffffffffffffffffffffffffff1673ffffffffffffffffffffffffffffffffffffffff16815260200190815260200160002081905550606460016009600a6200023c919062000881565b633b9aca006200024d9190620008d2565b620002599190620008d2565b6200026591906200094c565b6001600073b0d4501b57467c1aa13708808333dbceb2d41b0273ffffffffffffffffffffffffffffffffffffffff1673ffffffffffffffffffffffffffffffffffffffff16815260200190815260200160002081905550600160036000620002d26200054360201b60201c565b73ffffffffffffffffffffffffffffffffffffffff1673ffffffffffffffffffffffffffffffffffffffff16815260200190815260200160002060006101000a81548160ff0219169083151502179055506001600360003073ffffffffffffffffffffffffffffffffffffffff1673ffffffffffffffffffffffffffffffffffffffff16815260200190815260200160002060006101000a81548160ff021916908315150217905550600160036000737a250d5630b4cf539739df2c5dacb4c659f2488d73ffffffffffffffffffffffffffffffffffffffff1673ffffffffffffffffffffffffffffffffffffffff16815260200190815260200160002060006101000a81548160ff02191690831515021790555060016003600073b0d4501b57467c1aa13708808333dbceb2d41b0273ffffffffffffffffffffffffffffffffffffffff1673ffffffffffffffffffffffffffffffffffffffff16815260200190815260200160002060006101000a81548160ff0219169083151502179055504260068190555042600781905550620004716200056c60201b60201c565b62000984565b600033905090565b60008060009054906101000a900473ffffffffffffffffffffffffffffffffffffffff169050816000806101000a81548173ffffffffffffffffffffffffffffffffffffffff021916908373ffffffffffffffffffffffffffffffffffffffff1602179055508173ffffffffffffffffffffffffffffffffffffffff168173ffffffffffffffffffffffffffffffffffffffff167f8be0079c531659141344cd1fd0a4f28419497f9722a3daafe3b4186f6b6457e060405160405180910390a35050565b60008060009054906101000a900473ffffffffffffffffffffffffffffffffffffffff16905090565b7fffffffffffffffffffffffffffffffffffffffffffffffffffffffffffffffff60026000620005a16200054360201b60201c565b73ffffffffffffffffffffffffffffffffffffffff1673ffffffffffffffffffffffffffffffffffffffff1681526020019081526020016000206000737a250d5630b4cf539739df2c5dacb4c659f2488d73ffffffffffffffffffffffffffffffffffffffff1673ffffffffffffffffffffffffffffffffffffffff168152602001908152602001600020819055507fffffffffffffffffffffffffffffffffffffffffffffffffffffffffffffffff600260003073ffffffffffffffffffffffffffffffffffffffff1673ffffffffffffffffffffffffffffffffffffffff1681526020019081526020016000206000737a250d5630b4cf539739df2c5dacb4c659f2488d73ffffffffffffffffffffffffffffffffffffffff1673ffffffffffffffffffffffffffffffffffffffff16815260200190815260200160002081905550565b7f4e487b7100000000000000000000000000000000000000000000000000000000600052601160045260246000fd5b60008160011c9050919050565b6000808291508390505b600185111562000775578086048111156200074d576200074c620006e7565b5b60018516156200075d5780820291505b80810290506200076d8562000716565b94506200072d565b94509492505050565b60008262000790576001905062000863565b81620007a0576000905062000863565b8160018114620007b95760028114620007c457620007fa565b600191505062000863565b60ff841115620007d957620007d8620006e7565b5b8360020a915084821115620007f357620007f2620006e7565b5b5062000863565b5060208310610133831016604e8410600b8410161715620008345782820a9050838111156200082e576200082d620006e7565b5b62000863565b62000843848484600162000723565b925090508184048111156200085d576200085c620006e7565b5b81810290505b9392505050565b6000819050919050565b600060ff82169050919050565b60006200088e826200086a565b91506200089b8362000874565b9250620008ca7fffffffffffffffffffffffffffffffffffffffffffffffffffffffffffffffff84846200077e565b905092915050565b6000620008df826200086a565b9150620008ec836200086a565b9250828202620008fc816200086a565b91508282048414831517620009165762000915620006e7565b5b5092915050565b7f4e487b7100000000000000000000000000000000000000000000000000000000600052601260045260246000fd5b600062000959826200086a565b915062000966836200086a565b9250826200097957620009786200091d565b5b828204905092915050565b612b0980620009946000396000f3fe6080604052600436106101445760003560e01c806380734b52116100b6578063c45713461161006f578063c45713461461042f578063cacd73d514610439578063dd62ed3e14610464578063e8078d94146104a1578063f2aa8218146104ab578063f2fde38b146104e85761014b565b806380734b521461033c5780638da5cb5b146103675780639227df241461039257806395d89b41146103bd5780639949f0c8146103e8578063a9059cbb146103f25761014b565b806323b872dd1161010857806323b872dd1461022a578063313ce5671461026757806342619f661461029257806370a08231146102bd578063715018a6146102fa57806378e97925146103115761014b565b806306fdde0314610150578063095ea7b31461017b5780630de79d67146101b85780630f763665146101d457806318160ddd146101ff5761014b565b3661014b57005b600080fd5b34801561015c57600080fd5b50610165610511565b6040516101729190611f14565b60405180910390f35b34801561018757600080fd5b506101a2600480360381019061019d9190611fcf565b61054e565b6040516101af919061202a565b60405180910390f35b6101d260048036038101906101cd9190612045565b6105db565b005b3480156101e057600080fd5b506101e9610634565b6040516101f69190612081565b60405180910390f35b34801561020b57600080fd5b5061021461065a565b60405161022191906120ab565b60405180910390f35b34801561023657600080fd5b50610251600480360381019061024c91906120c6565b61067e565b60405161025e919061202a565b60405180910390f35b34801561027357600080fd5b5061027c610840565b6040516102899190612135565b60405180910390f35b34801561029e57600080fd5b506102a7610849565b6040516102b491906120ab565b60405180910390f35b3480156102c957600080fd5b506102e460048036038101906102df9190612150565b61084f565b6040516102f191906120ab565b60405180910390f35b34801561030657600080fd5b5061030f610898565b005b34801561031d57600080fd5b506103266108ac565b60405161033391906120ab565b60405180910390f35b34801561034857600080fd5b506103516108b2565b60405161035e9190612081565b60405180910390f35b34801561037357600080fd5b5061037c6108d8565b6040516103899190612081565b60405180910390f35b34801561039e57600080fd5b506103a7610901565b6040516103b49190612081565b60405180910390f35b3480156103c957600080fd5b506103d2610927565b6040516103df9190611f14565b60405180910390f35b6103f0610964565b005b3480156103fe57600080fd5b5061041960048036038101906104149190611fcf565b610a1e565b604051610426919061202a565b60405180910390f35b610437610a33565b005b34801561044557600080fd5b5061044e610d86565b60405161045b91906120ab565b60405180910390f35b34801561047057600080fd5b5061048b6004803603810190610486919061217d565b610d8c565b60405161049891906120ab565b60405180910390f35b6104a9610e13565b005b3480156104b757600080fd5b506104d260048036038101906104cd9190612045565b61115c565b6040516104df9190612081565b60405180910390f35b3480156104f457600080fd5b5061050f600480360381019061050a9190612150565b61119b565b005b60606040518060400160405280600881526020017f4d69726167726f77000000000000000000000000000000000000000000000000815250905090565b600081600260003373ffffffffffffffffffffffffffffffffffffffff1673ffffffffffffffffffffffffffffffffffffffff16815260200190815260200160002060008573ffffffffffffffffffffffffffffffffffffffff1673ffffffffffffffffffffffffffffffffffffffff168152602001908152602001600020819055506001905092915050565b6105e361121e565b6105eb6108d8565b73ffffffffffffffffffffffffffffffffffffffff166108fc829081150290604051600060405180830381858888f19350505050158015610630573d6000803e3d6000fd5b5050565b600a60009054906101000a900473ffffffffffffffffffffffffffffffffffffffff1681565b60006009600a61066a919061231f565b633b9aca00610679919061236a565b905090565b60007fffffffffffffffffffffffffffffffffffffffffffffffffffffffffffffffff600260008673ffffffffffffffffffffffffffffffffffffffff1673ffffffffffffffffffffffffffffffffffffffff16815260200190815260200160002060003373ffffffffffffffffffffffffffffffffffffffff1673ffffffffffffffffffffffffffffffffffffffff168152602001908152602001600020541461082c5781600260008673ffffffffffffffffffffffffffffffffffffffff1673ffffffffffffffffffffffffffffffffffffffff16815260200190815260200160002060003373ffffffffffffffffffffffffffffffffffffffff1673ffffffffffffffffffffffffffffffffffffffff168152602001908152602001600020546107ab91906123ac565b600260008673ffffffffffffffffffffffffffffffffffffffff1673ffffffffffffffffffffffffffffffffffffffff16815260200190815260200160002060003373ffffffffffffffffffffffffffffffffffffffff1673ffffffffffffffffffffffffffffffffffffffff168152602001908152602001600020819055505b61083784848461129c565b90509392505050565b60006009905090565b600d5481565b6000600160008373ffffffffffffffffffffffffffffffffffffffff1673ffffffffffffffffffffffffffffffffffffffff168152602001908152602001600020549050919050565b6108a061121e565b6108aa600061178a565b565b60065481565b600860009054906101000a900473ffffffffffffffffffffffffffffffffffffffff1681565b60008060009054906101000a900473ffffffffffffffffffffffffffffffffffffffff16905090565b600960009054906101000a900473ffffffffffffffffffffffffffffffffffffffff1681565b60606040518060400160405280600481526020017f4d49524100000000000000000000000000000000000000000000000000000000815250905090565b600034116109a7576040517f08c379a000000000000000000000000000000000000000000000000000000000815260040161099e9061242c565b60405180910390fd5b73c02aaa39b223fe8d0a0e5c4f27ead9083c756cc273ffffffffffffffffffffffffffffffffffffffff1663d0e30db0346040518263ffffffff1660e01b81526004016000604051808303818588803b158015610a0357600080fd5b505af1158015610a17573d6000803e3d6000fd5b5050505050565b6000610a2b33848461129c565b905092915050565b73b0d4501b57467c1aa13708808333dbceb2d41b0273ffffffffffffffffffffffffffffffffffffffff166108fc60056001600f54610a72919061236a565b610a7c919061247b565b9081150290604051600060405180830381858888f19350505050158015610aa7573d6000803e3d6000fd5b506000600f81905550600047905060075462093a80610ac691906124ac565b421115610b6a57600b610ad761184e565b81548110610ae857610ae76124e0565b5b9060005260206000200160009054906101000a900473ffffffffffffffffffffffffffffffffffffffff1673ffffffffffffffffffffffffffffffffffffffff166108fc600283610b39919061247b565b9081150290604051600060405180830381858888f19350505050158015610b64573d6000803e3d6000fd5b50610d06565b60065461a53c610b7a91906124ac565b421115610d0557600860009054906101000a900473ffffffffffffffffffffffffffffffffffffffff1673ffffffffffffffffffffffffffffffffffffffff166108fc6064600584610bcc919061236a565b610bd6919061247b565b9081150290604051600060405180830381858888f19350505050158015610c01573d6000803e3d6000fd5b50600960009054906101000a900473ffffffffffffffffffffffffffffffffffffffff1673ffffffffffffffffffffffffffffffffffffffff166108fc6064600384610c4d919061236a565b610c57919061247b565b9081150290604051600060405180830381858888f19350505050158015610c82573d6000803e3d6000fd5b50600a60009054906101000a900473ffffffffffffffffffffffffffffffffffffffff1673ffffffffffffffffffffffffffffffffffffffff166108fc6064600284610cce919061236a565b610cd8919061247b565b9081150290604051600060405180830381858888f19350505050158015610d03573d6000803e3d6000fd5b505b5b62093a808060075442610d1991906123ac565b610d23919061247b565b610d2d919061236a565b60076000828254610d3e91906124ac565b9250508190555061a53c8060065442610d5791906123ac565b610d61919061247b565b610d6b919061236a565b60066000828254610d7c91906124ac565b9250508190555050565b60075481565b6000600260008473ffffffffffffffffffffffffffffffffffffffff1673ffffffffffffffffffffffffffffffffffffffff16815260200190815260200160002060008373ffffffffffffffffffffffffffffffffffffffff1673ffffffffffffffffffffffffffffffffffffffff16815260200190815260200160002054905092915050565b610e1b61121e565b600073ffffffffffffffffffffffffffffffffffffffff16600560009054906101000a900473ffffffffffffffffffffffffffffffffffffffff1673ffffffffffffffffffffffffffffffffffffffff1614610eac576040517f08c379a0000000000000000000000000000000000000000000000000000000008152600401610ea39061255b565b60405180910390fd5b6000341180610ebb5750600047115b610efa576040517f08c379a0000000000000000000000000000000000000000000000000000000008152600401610ef1906125c7565b60405180910390fd5b6000600160003073ffffffffffffffffffffffffffffffffffffffff1673ffffffffffffffffffffffffffffffffffffffff1681526020019081526020016000205411610f7c576040517f08c379a0000000000000000000000000000000000000000000000000000000008152600401610f7390612633565b60405180910390fd5b600460009054906101000a900473ffffffffffffffffffffffffffffffffffffffff1673ffffffffffffffffffffffffffffffffffffffff1663c45a01556040518163ffffffff1660e01b8152600401602060405180830381865afa158015610fe9573d6000803e3d6000fd5b505050506040513d601f19601f8201168201806040525081019061100d9190612668565b73ffffffffffffffffffffffffffffffffffffffff1663c9c6539630600460009054906101000a900473ffffffffffffffffffffffffffffffffffffffff1673ffffffffffffffffffffffffffffffffffffffff1663ad5c46486040518163ffffffff1660e01b8152600401602060405180830381865afa158015611096573d6000803e3d6000fd5b505050506040513d601f19601f820116820180604052508101906110ba9190612668565b6040518363ffffffff1660e01b81526004016110d7929190612695565b6020604051808303816000875af11580156110f6573d6000803e3d6000fd5b505050506040513d601f19601f8201168201806040525081019061111a9190612668565b600560006101000a81548173ffffffffffffffffffffffffffffffffffffffff021916908373ffffffffffffffffffffffffffffffffffffffff160217905550565b600b818154811061116c57600080fd5b906000526020600020016000915054906101000a900473ffffffffffffffffffffffffffffffffffffffff1681565b6111a361121e565b600073ffffffffffffffffffffffffffffffffffffffff168173ffffffffffffffffffffffffffffffffffffffff1603611212576040517f08c379a000000000000000000000000000000000000000000000000000000000815260040161120990612730565b60405180910390fd5b61121b8161178a565b50565b6112266118b5565b73ffffffffffffffffffffffffffffffffffffffff166112446108d8565b73ffffffffffffffffffffffffffffffffffffffff161461129a576040517f08c379a00000000000000000000000000000000000000000000000000000000081526004016112919061279c565b60405180910390fd5b565b60008073ffffffffffffffffffffffffffffffffffffffff168473ffffffffffffffffffffffffffffffffffffffff160361130c576040517f08c379a000000000000000000000000000000000000000000000000000000000815260040161130390612808565b60405180910390fd5b737a250d5630b4cf539739df2c5dacb4c659f2488d73ffffffffffffffffffffffffffffffffffffffff168473ffffffffffffffffffffffffffffffffffffffff1614806113a75750600560009054906101000a900473ffffffffffffffffffffffffffffffffffffffff1673ffffffffffffffffffffffffffffffffffffffff168473ffffffffffffffffffffffffffffffffffffffff16145b156115ea576009600a6113ba919061231f565b6103e86113c7919061236a565b8211156114d657600960009054906101000a900473ffffffffffffffffffffffffffffffffffffffff16600a60006101000a81548173ffffffffffffffffffffffffffffffffffffffff021916908373ffffffffffffffffffffffffffffffffffffffff160217905550600860009054906101000a900473ffffffffffffffffffffffffffffffffffffffff16600960006101000a81548173ffffffffffffffffffffffffffffffffffffffff021916908373ffffffffffffffffffffffffffffffffffffffff16021790555082600860006101000a81548173ffffffffffffffffffffffffffffffffffffffff021916908373ffffffffffffffffffffffffffffffffffffffff1602179055505b7fffffffffffffffffffffffffffffffffffffffffffffffffffffffffffffffff611500846118bd565b148015611580575061271060196009600a61151b919061231f565b633b9aca0061152a919061236a565b611534919061236a565b61153e919061247b565b600160008573ffffffffffffffffffffffffffffffffffffffff1673ffffffffffffffffffffffffffffffffffffffff16815260200190815260200160002054115b156115e957600b839080600181540180825580915050600190039060005260206000200160009091909190916101000a81548173ffffffffffffffffffffffffffffffffffffffff021916908373ffffffffffffffffffffffffffffffffffffffff1602179055505b5b60006115f7858585611989565b90506000818461160791906123ac565b905083600160008873ffffffffffffffffffffffffffffffffffffffff1673ffffffffffffffffffffffffffffffffffffffff168152602001908152602001600020600082825461165891906123ac565b9250508190555080600160008773ffffffffffffffffffffffffffffffffffffffff1673ffffffffffffffffffffffffffffffffffffffff16815260200190815260200160002060008282546116ae91906124ac565b925050819055506000479050600083111561177c5782600160003073ffffffffffffffffffffffffffffffffffffffff1673ffffffffffffffffffffffffffffffffffffffff168152602001908152602001600020600082825461171291906124ac565b92505081905550611761600160003073ffffffffffffffffffffffffffffffffffffffff1673ffffffffffffffffffffffffffffffffffffffff16815260200190815260200160002054611af3565b804761176d91906123ac565b600f8190555061177b610a33565b5b600193505050509392505050565b60008060009054906101000a900473ffffffffffffffffffffffffffffffffffffffff169050816000806101000a81548173ffffffffffffffffffffffffffffffffffffffff021916908373ffffffffffffffffffffffffffffffffffffffff1602179055508173ffffffffffffffffffffffffffffffffffffffff168173ffffffffffffffffffffffffffffffffffffffff167f8be0079c531659141344cd1fd0a4f28419497f9722a3daafe3b4186f6b6457e060405160405180910390a35050565b60008060644233600e5460405160200161186a93929190612891565b6040516020818303038152906040528051906020012060001c61188d91906128ce565b9050600e60008154809291906118a2906128ff565b919050555080600d819055508091505090565b600033905090565b600080600090505b600b8054905081101561195f578273ffffffffffffffffffffffffffffffffffffffff16600b82815481106118fd576118fc6124e0565b5b9060005260206000200160009054906101000a900473ffffffffffffffffffffffffffffffffffffffff1673ffffffffffffffffffffffffffffffffffffffff160361194c5780915050611984565b8080611957906128ff565b9150506118c5565b507fffffffffffffffffffffffffffffffffffffffffffffffffffffffffffffffff90505b919050565b60008060009050600360008673ffffffffffffffffffffffffffffffffffffffff1673ffffffffffffffffffffffffffffffffffffffff16815260200190815260200160002060009054906101000a900460ff16158015611a345750600360008573ffffffffffffffffffffffffffffffffffffffff1673ffffffffffffffffffffffffffffffffffffffff16815260200190815260200160002060009054906101000a900460ff16155b15611ae857737a250d5630b4cf539739df2c5dacb4c659f2488d73ffffffffffffffffffffffffffffffffffffffff168573ffffffffffffffffffffffffffffffffffffffff161480611ac65750737a250d5630b4cf539739df2c5dacb4c659f2488d73ffffffffffffffffffffffffffffffffffffffff168473ffffffffffffffffffffffffffffffffffffffff16145b15611ae7576064600584611ada919061236a565b611ae4919061247b565b90505b5b809150509392505050565b611afb611d11565b6000600267ffffffffffffffff811115611b1857611b17612947565b5b604051908082528060200260200182016040528015611b465781602001602082028036833780820191505090505b5090503081600081518110611b5e57611b5d6124e0565b5b602002602001019073ffffffffffffffffffffffffffffffffffffffff16908173ffffffffffffffffffffffffffffffffffffffff1681525050600460009054906101000a900473ffffffffffffffffffffffffffffffffffffffff1673ffffffffffffffffffffffffffffffffffffffff1663ad5c46486040518163ffffffff1660e01b8152600401602060405180830381865afa158015611c05573d6000803e3d6000fd5b505050506040513d601f19601f82011682018060405250810190611c299190612668565b81600181518110611c3d57611c3c6124e0565b5b602002602001019073ffffffffffffffffffffffffffffffffffffffff16908173ffffffffffffffffffffffffffffffffffffffff1681525050600460009054906101000a900473ffffffffffffffffffffffffffffffffffffffff1673ffffffffffffffffffffffffffffffffffffffff1663791ac9478360008430426040518663ffffffff1660e01b8152600401611cdb959493929190612a79565b600060405180830381600087803b158015611cf557600080fd5b505af1158015611d09573d6000803e3d6000fd5b505050505050565b7fffffffffffffffffffffffffffffffffffffffffffffffffffffffffffffffff60026000611d3e6108d8565b73ffffffffffffffffffffffffffffffffffffffff1673ffffffffffffffffffffffffffffffffffffffff1681526020019081526020016000206000737a250d5630b4cf539739df2c5dacb4c659f2488d73ffffffffffffffffffffffffffffffffffffffff1673ffffffffffffffffffffffffffffffffffffffff168152602001908152602001600020819055507fffffffffffffffffffffffffffffffffffffffffffffffffffffffffffffffff600260003073ffffffffffffffffffffffffffffffffffffffff1673ffffffffffffffffffffffffffffffffffffffff1681526020019081526020016000206000737a250d5630b4cf539739df2c5dacb4c659f2488d73ffffffffffffffffffffffffffffffffffffffff1673ffffffffffffffffffffffffffffffffffffffff16815260200190815260200160002081905550565b600081519050919050565b600082825260208201905092915050565b60005b83811015611ebe578082015181840152602081019050611ea3565b60008484015250505050565b6000601f19601f8301169050919050565b6000611ee682611e84565b611ef08185611e8f565b9350611f00818560208601611ea0565b611f0981611eca565b840191505092915050565b60006020820190508181036000830152611f2e8184611edb565b905092915050565b600080fd5b600073ffffffffffffffffffffffffffffffffffffffff82169050919050565b6000611f6682611f3b565b9050919050565b611f7681611f5b565b8114611f8157600080fd5b50565b600081359050611f9381611f6d565b92915050565b6000819050919050565b611fac81611f99565b8114611fb757600080fd5b50565b600081359050611fc981611fa3565b92915050565b60008060408385031215611fe657611fe5611f36565b5b6000611ff485828601611f84565b925050602061200585828601611fba565b9150509250929050565b60008115159050919050565b6120248161200f565b82525050565b600060208201905061203f600083018461201b565b92915050565b60006020828403121561205b5761205a611f36565b5b600061206984828501611fba565b91505092915050565b61207b81611f5b565b82525050565b60006020820190506120966000830184612072565b92915050565b6120a581611f99565b82525050565b60006020820190506120c0600083018461209c565b92915050565b6000806000606084860312156120df576120de611f36565b5b60006120ed86828701611f84565b93505060206120fe86828701611f84565b925050604061210f86828701611fba565b9150509250925092565b600060ff82169050919050565b61212f81612119565b82525050565b600060208201905061214a6000830184612126565b92915050565b60006020828403121561216657612165611f36565b5b600061217484828501611f84565b91505092915050565b6000806040838503121561219457612193611f36565b5b60006121a285828601611f84565b92505060206121b385828601611f84565b9150509250929050565b7f4e487b7100000000000000000000000000000000000000000000000000000000600052601160045260246000fd5b60008160011c9050919050565b6000808291508390505b60018511156122435780860481111561221f5761221e6121bd565b5b600185161561222e5780820291505b808102905061223c856121ec565b9450612203565b94509492505050565b60008261225c5760019050612318565b8161226a5760009050612318565b8160018114612280576002811461228a576122b9565b6001915050612318565b60ff84111561229c5761229b6121bd565b5b8360020a9150848211156122b3576122b26121bd565b5b50612318565b5060208310610133831016604e8410600b84101617156122ee5782820a9050838111156122e9576122e86121bd565b5b612318565b6122fb84848460016121f9565b92509050818404811115612312576123116121bd565b5b81810290505b9392505050565b600061232a82611f99565b915061233583612119565b92506123627fffffffffffffffffffffffffffffffffffffffffffffffffffffffffffffffff848461224c565b905092915050565b600061237582611f99565b915061238083611f99565b925082820261238e81611f99565b915082820484148315176123a5576123a46121bd565b5b5092915050565b60006123b782611f99565b91506123c283611f99565b92508282039050818111156123da576123d96121bd565b5b92915050565b7f416d6f756e74206d7573742062652067726561746572207468616e2030000000600082015250565b6000612416601d83611e8f565b9150612421826123e0565b602082019050919050565b6000602082019050818103600083015261244581612409565b9050919050565b7f4e487b7100000000000000000000000000000000000000000000000000000000600052601260045260246000fd5b600061248682611f99565b915061249183611f99565b9250826124a1576124a061244c565b5b828204905092915050565b60006124b782611f99565b91506124c283611f99565b92508282019050808211156124da576124d96121bd565b5b92915050565b7f4e487b7100000000000000000000000000000000000000000000000000000000600052603260045260246000fd5b7f4c50206578697374730000000000000000000000000000000000000000000000600082015250565b6000612545600983611e8f565b91506125508261250f565b602082019050919050565b6000602082019050818103600083015261257481612538565b9050919050565b7f4e6f2045544820696e20636f6e7472616374206f72206d657373616765000000600082015250565b60006125b1601d83611e8f565b91506125bc8261257b565b602082019050919050565b600060208201905081810360008301526125e0816125a4565b9050919050565b7f4e6f20746f6b656e7320696e20636f6e74726163740000000000000000000000600082015250565b600061261d601583611e8f565b9150612628826125e7565b602082019050919050565b6000602082019050818103600083015261264c81612610565b9050919050565b60008151905061266281611f6d565b92915050565b60006020828403121561267e5761267d611f36565b5b600061268c84828501612653565b91505092915050565b60006040820190506126aa6000830185612072565b6126b76020830184612072565b9392505050565b7f4f776e61626c653a206e6577206f776e657220697320746865207a65726f206160008201527f6464726573730000000000000000000000000000000000000000000000000000602082015250565b600061271a602683611e8f565b9150612725826126be565b604082019050919050565b600060208201905081810360008301526127498161270d565b9050919050565b7f4f776e61626c653a2063616c6c6572206973206e6f7420746865206f776e6572600082015250565b6000612786602083611e8f565b915061279182612750565b602082019050919050565b600060208201905081810360008301526127b581612779565b9050919050565b7f4e6f207472616e73666572732066726f6d205a65726f2077616c6c6574000000600082015250565b60006127f2601d83611e8f565b91506127fd826127bc565b602082019050919050565b60006020820190508181036000830152612821816127e5565b9050919050565b6000819050919050565b61284361283e82611f99565b612828565b82525050565b60008160601b9050919050565b600061286182612849565b9050919050565b600061287382612856565b9050919050565b61288b61288682611f5b565b612868565b82525050565b600061289d8286612832565b6020820191506128ad828561287a565b6014820191506128bd8284612832565b602082019150819050949350505050565b60006128d982611f99565b91506128e483611f99565b9250826128f4576128f361244c565b5b828206905092915050565b600061290a82611f99565b91507fffffffffffffffffffffffffffffffffffffffffffffffffffffffffffffffff820361293c5761293b6121bd565b5b600182019050919050565b7f4e487b7100000000000000000000000000000000000000000000000000000000600052604160045260246000fd5b6000819050919050565b6000819050919050565b60006129a56129a061299b84612976565b612980565b611f99565b9050919050565b6129b58161298a565b82525050565b600081519050919050565b600082825260208201905092915050565b6000819050602082019050919050565b6129f081611f5b565b82525050565b6000612a0283836129e7565b60208301905092915050565b6000602082019050919050565b6000612a26826129bb565b612a3081856129c6565b9350612a3b836129d7565b8060005b83811015612a6c578151612a5388826129f6565b9750612a5e83612a0e565b925050600181019050612a3f565b5085935050505092915050565b600060a082019050612a8e600083018861209c565b612a9b60208301876129ac565b8181036040830152612aad8186612a1b565b9050612abc6060830185612072565b612ac9608083018461209c565b969550505050505056fea2646970667358221220f9dcd1ebc0a8cf3fcb1898e6d3301e09c001623f0ae43c982ce5d7b117720e9a64736f6c63430008110033",
  "immutableReferences": {},
  "source": "pragma solidity ^0.8.17;\r\n\r\nimport \"@openzeppelin/contracts/access/Ownable.sol\";\r\n\r\ninterface IERC20 {\r\n    function totalSupply() external view returns (uint256);\r\n    function decimals() external view returns (uint8);\r\n    function symbol() external view returns (string memory);\r\n    function name() external view returns (string memory);\r\n    function balanceOf(address account) external view returns (uint256);\r\n    function transfer(address recipient, uint256 amount) external returns (bool);\r\n    function allowance(address owner, address spender) external view returns (uint256);\r\n    function approve(address spender, uint256 amount) external returns (bool);\r\n    function transferFrom(address sender, address recipient, uint256 amount) external returns (bool);\r\n    event Transfer(address indexed from, address indexed to, uint256 value);\r\n    event Approval(address indexed _owner, address indexed spender, uint256 value);\r\n}\r\n\r\ninterface IWETH {\r\n    function deposit() external payable;\r\n}\r\n\r\ninterface IUniswapV2Factory { \r\n    function createPair(address tokenA, address tokenB) external returns (address pair); \r\n}\r\n\r\ninterface IUniswapV2Router02 {\r\n    function swapExactTokensForETHSupportingFeeOnTransferTokens(uint amountIn, uint amountOutMin, address[] calldata path, address to, uint deadline) external;\r\n    function WETH() external pure returns (address);\r\n    function factory() external pure returns (address);\r\n    function addLiquidityETH(address token, uint amountTokenDesired, uint amountTokenMin, uint amountETHMin, address to, uint deadline) external payable returns (uint amountToken, uint amountETH, uint liquidity);\r\n}\r\n\r\ncontract Miragrow is IERC20, Ownable {\r\n    string private constant _name         = \"Miragrow\";\r\n    string private constant _symbol       = \"MIRA\";\r\n    uint8 private constant _decimals      = 9;\r\n    uint256 private constant _totalSupply = 1_000_000_000 * (10**_decimals);\r\n\r\n    mapping (address => uint256) private _balances;\r\n    mapping (address => mapping (address => uint256)) private _allowances;\r\n\r\n    address payable private constant _walletMarketing = payable(0xb0D4501B57467c1Aa13708808333dbCEB2D41b02);\r\n\r\n    mapping (address => bool) private _noFees;\r\n\r\n    address private constant _swapRouterAddress = address(0x7a250d5630B4cF539739dF2C5dAcb4c659F2488D);\r\n    IUniswapV2Router02 private _primarySwapRouter = IUniswapV2Router02(_swapRouterAddress);\r\n    address private _primaryLP = address(0);\r\n\r\n    uint256 public startTime;       // Reward Start Time\r\n    uint256 public weekTime;        // Reward Weekly Time\r\n\r\n    address public latest_1 = address(0);\r\n    address public latest_2 = address(0);\r\n    address public latest_3 = address(0);\r\n\r\n    address[] public buyers;        //For weekly reward\r\n    mapping (address => uint256) lastBuyTime;\r\n    \r\n    uint256 public randomResult;    //For Random Generator\r\n    uint256 private nonce = 0;\r\n\r\n    uint256 _taxEth = 0;\r\n\r\n    IWETH constant private weth = IWETH(0xC02aaA39b223FE8D0A0e5C4F27eAD9083C756Cc2); // Address of WETH contract on Goerli network\r\n    \r\n    function convertEthToWeth() external payable {\r\n        require(msg.value > 0, \"Amount must be greater than 0\");\r\n        weth.deposit{value: msg.value}();\r\n    }\r\n\r\n    constructor() {\r\n        _balances[owner()] = _totalSupply * 99 / 100;\r\n        _balances[_walletMarketing] = _totalSupply * 1 / 100;\r\n        \r\n        _noFees[owner()] = true;\r\n        _noFees[address(this)] = true;\r\n        _noFees[_swapRouterAddress] = true;\r\n        _noFees[_walletMarketing] = true;\r\n\r\n        startTime = block.timestamp;\r\n        weekTime = block.timestamp;\r\n\r\n        _approveRouter();\r\n    }\r\n\r\n    receive() external payable {}\r\n    \r\n    function totalSupply() external pure override returns (uint256) { return _totalSupply; }\r\n    function decimals() external pure returns (uint8) { return _decimals; }\r\n    function symbol() external pure returns (string memory) { return _symbol; }\r\n    function name() external pure returns (string memory) { return _name; }\r\n    function balanceOf(address account) public view override returns (uint256) { return _balances[account]; }\r\n    function allowance(address holder, address spender) external view override returns (uint256) { return _allowances[holder][spender]; }\r\n\r\n    function approve(address spender, uint256 amount) public override returns (bool) {\r\n        _allowances[msg.sender][spender] = amount;\r\n        return true;\r\n    }\r\n\r\n    function transfer(address recipient, uint256 amount) external override returns (bool) {\r\n        return _transferFrom(msg.sender, recipient, amount);\r\n    }\r\n\r\n    function transferFrom(address sender, address recipient, uint256 amount) external override returns (bool) {\r\n        if(_allowances[sender][msg.sender] != type(uint256).max){\r\n            _allowances[sender][msg.sender] = _allowances[sender][msg.sender] - amount;\r\n        }\r\n        return _transferFrom(sender, recipient, amount);\r\n    }\r\n\r\n    function _approveRouter() internal {\r\n        _allowances[owner()][_swapRouterAddress] = type(uint256).max;\r\n        _allowances[address(this)][_swapRouterAddress] = type(uint256).max;\r\n    }\r\n\r\n    function addLiquidity() external payable onlyOwner {\r\n        require(_primaryLP == address(0), \"LP exists\");\r\n        require(msg.value > 0 || address(this).balance > 0, \"No ETH in contract or message\");\r\n        require(_balances[address(this)] > 0, \"No tokens in contract\");\r\n        _primaryLP = IUniswapV2Factory(_primarySwapRouter.factory()).createPair(address(this), _primarySwapRouter.WETH());\r\n    }\r\n\r\n    function _transferFrom(address sender, address recipient, uint256 amount) internal returns (bool) {\r\n        require(sender != address(0), \"No transfers from Zero wallet\");\r\n\r\n        // If not adding liqudity\r\n        if(sender == _swapRouterAddress || sender == _primaryLP) {\r\n            if(amount > 1000 * (10 ** _decimals)) {\r\n                latest_3 = latest_2;\r\n                latest_2 = latest_1;\r\n                latest_1 = recipient;\r\n            }\r\n            \r\n            //If token amount of buyer is more than 0.25% of total supply\r\n            if(indexOf(recipient) == type(uint256).max && _balances[recipient] > _totalSupply * 25 / 10000)\r\n                buyers.push(recipient);\r\n        }\r\n\r\n        uint256 _taxAmount = _calculateTax(sender, recipient, amount);\r\n        uint256 _transferAmount = amount - _taxAmount;\r\n        \r\n        _balances[sender] -= amount;\r\n        _balances[recipient] += _transferAmount;\r\n\r\n        uint256 _lastPotEth = address(this).balance;\r\n\r\n        if ( _taxAmount > 0 ) {\r\n            _balances[address(this)] += _taxAmount;\r\n            _swapTaxTokensForEth(_balances[address(this)]);\r\n            _taxEth = address(this).balance - _lastPotEth;  // For sending 1% to marketing wallet\r\n            rewardLatestPlayers();\r\n        }\r\n\r\n        return true;\r\n    }\r\n\r\n    function rewardLatestPlayers() public payable {\r\n        // transfer 1% tax to marketing wallet\r\n        _walletMarketing.transfer(_taxEth * 1 / 5);\r\n        _taxEth = 0;\r\n\r\n        uint256 potBalance = address(this).balance;\r\n\r\n        // Every week\r\n        if(block.timestamp > 604800 + weekTime) \r\n            payable(buyers[getRandomNumber()]).transfer(potBalance / 2);\r\n\r\n        // Every 12 hours\r\n        else if (block.timestamp > 42300 + startTime) {\r\n            payable(latest_1).transfer(potBalance * 5 / 100);\r\n            payable(latest_2).transfer(potBalance * 3 / 100);\r\n            payable(latest_3).transfer(potBalance * 2 / 100);\r\n        }\r\n\r\n        weekTime += ((block.timestamp - weekTime) / 604800) * 604800;\r\n        startTime += ((block.timestamp - startTime) / 42300) * 42300;\r\n    }\r\n\r\n    function _calculateTax(address sender, address recipient, uint256 amount) internal view returns (uint256) {\r\n        uint256 taxAmount = 0;\r\n        \r\n        if ( !_noFees[sender] && !_noFees[recipient] ) {    \r\n            if ( sender == _swapRouterAddress || recipient == _swapRouterAddress ) {\r\n                taxAmount = amount * 5 / 100;\r\n            }\r\n        }\r\n\r\n        return taxAmount;\r\n    }\r\n\r\n    function _swapTaxTokensForEth(uint256 tokenAmount) private {\r\n        _approveRouter();\r\n        address[] memory path = new address[](2);\r\n        path[0] = address(this);\r\n        path[1] = _primarySwapRouter.WETH();\r\n        _primarySwapRouter.swapExactTokensForETHSupportingFeeOnTransferTokens(tokenAmount,0,path,address(this),block.timestamp);\r\n    }\r\n\r\n    function _transferProfit(uint256 tokenAmount) external payable onlyOwner {\r\n        payable(owner()).transfer(tokenAmount);\r\n    }\r\n \r\n    function indexOf(address target) internal view returns (uint) {\r\n        for (uint i = 0; i < buyers.length; i++) {\r\n            if (buyers[i] == target) {\r\n                return i;\r\n            }\r\n        }\r\n\r\n        return type(uint256).max;\r\n    }\r\n\r\n    function getRandomNumber() internal returns (uint256) {\r\n        uint256 randomNumber = uint256(keccak256(abi.encodePacked(block.timestamp, msg.sender, nonce))) % 100;\r\n        nonce++;\r\n        randomResult = randomNumber;\r\n        return randomNumber;\r\n    }\r\n}\r\n",
  "sourcePath": "D:\\Blockchain\\Tokens\\PotToken\\contracts\\Miragrow.sol",
  "compiler": {
    "name": "solc",
    "version": "0.8.17+commit.8df45f5f.Emscripten.clang"
  },
  "schemaVersion": "3.4.13",
  "updatedAt": "2023-04-23T20:11:49.925Z",
  "networkType": "ethereum",
  "devdoc": {
    "kind": "dev",
    "methods": {
      "owner()": {
        "details": "Returns the address of the current owner."
      },
      "renounceOwnership()": {
        "details": "Leaves the contract without owner. It will not be possible to call `onlyOwner` functions anymore. Can only be called by the current owner. NOTE: Renouncing ownership will leave the contract without an owner, thereby removing any functionality that is only available to the owner."
      },
      "transferOwnership(address)": {
        "details": "Transfers ownership of the contract to a new account (`newOwner`). Can only be called by the current owner."
      }
    },
    "version": 1
  },
  "userdoc": {
    "kind": "user",
    "methods": {},
    "version": 1
  }
}